{
  "_format": "hh-sol-artifact-1",
  "contractName": "Domains",
  "sourceName": "contracts/domains.sol",
  "abi": [
    {
      "inputs": [
        {
          "internalType": "string",
          "name": "_tld",
          "type": "string"
        }
      ],
      "stateMutability": "payable",
      "type": "constructor"
    },
    {
      "inputs": [],
      "name": "AlreadyRegistered",
      "type": "error"
    },
    {
      "inputs": [
        {
          "internalType": "address",
          "name": "sender",
          "type": "address"
        },
        {
          "internalType": "uint256",
          "name": "tokenId",
          "type": "uint256"
        },
        {
          "internalType": "address",
          "name": "owner",
          "type": "address"
        }
      ],
      "name": "ERC721IncorrectOwner",
      "type": "error"
    },
    {
      "inputs": [
        {
          "internalType": "address",
          "name": "operator",
          "type": "address"
        },
        {
          "internalType": "uint256",
          "name": "tokenId",
          "type": "uint256"
        }
      ],
      "name": "ERC721InsufficientApproval",
      "type": "error"
    },
    {
      "inputs": [
        {
          "internalType": "address",
          "name": "approver",
          "type": "address"
        }
      ],
      "name": "ERC721InvalidApprover",
      "type": "error"
    },
    {
      "inputs": [
        {
          "internalType": "address",
          "name": "operator",
          "type": "address"
        }
      ],
      "name": "ERC721InvalidOperator",
      "type": "error"
    },
    {
      "inputs": [
        {
          "internalType": "address",
          "name": "owner",
          "type": "address"
        }
      ],
      "name": "ERC721InvalidOwner",
      "type": "error"
    },
    {
      "inputs": [
        {
          "internalType": "address",
          "name": "receiver",
          "type": "address"
        }
      ],
      "name": "ERC721InvalidReceiver",
      "type": "error"
    },
    {
      "inputs": [
        {
          "internalType": "address",
          "name": "sender",
          "type": "address"
        }
      ],
      "name": "ERC721InvalidSender",
      "type": "error"
    },
    {
      "inputs": [
        {
          "internalType": "uint256",
          "name": "tokenId",
          "type": "uint256"
        }
      ],
      "name": "ERC721NonexistentToken",
      "type": "error"
    },
    {
      "inputs": [
        {
          "internalType": "string",
          "name": "name",
          "type": "string"
        }
      ],
      "name": "InvalidName",
      "type": "error"
    },
    {
      "inputs": [],
      "name": "Unauthorized",
      "type": "error"
    },
    {
      "anonymous": false,
      "inputs": [
        {
          "indexed": true,
          "internalType": "address",
          "name": "owner",
          "type": "address"
        },
        {
          "indexed": true,
          "internalType": "address",
          "name": "approved",
          "type": "address"
        },
        {
          "indexed": true,
          "internalType": "uint256",
          "name": "tokenId",
          "type": "uint256"
        }
      ],
      "name": "Approval",
      "type": "event"
    },
    {
      "anonymous": false,
      "inputs": [
        {
          "indexed": true,
          "internalType": "address",
          "name": "owner",
          "type": "address"
        },
        {
          "indexed": true,
          "internalType": "address",
          "name": "operator",
          "type": "address"
        },
        {
          "indexed": false,
          "internalType": "bool",
          "name": "approved",
          "type": "bool"
        }
      ],
      "name": "ApprovalForAll",
      "type": "event"
    },
    {
      "anonymous": false,
      "inputs": [
        {
          "indexed": false,
          "internalType": "uint256",
          "name": "_fromTokenId",
          "type": "uint256"
        },
        {
          "indexed": false,
          "internalType": "uint256",
          "name": "_toTokenId",
          "type": "uint256"
        }
      ],
      "name": "BatchMetadataUpdate",
      "type": "event"
    },
    {
      "anonymous": false,
      "inputs": [
        {
          "indexed": false,
          "internalType": "uint256",
          "name": "_tokenId",
          "type": "uint256"
        }
      ],
      "name": "MetadataUpdate",
      "type": "event"
    },
    {
      "anonymous": false,
      "inputs": [
        {
          "indexed": true,
          "internalType": "address",
          "name": "from",
          "type": "address"
        },
        {
          "indexed": true,
          "internalType": "address",
          "name": "to",
          "type": "address"
        },
        {
          "indexed": true,
          "internalType": "uint256",
          "name": "tokenId",
          "type": "uint256"
        }
      ],
      "name": "Transfer",
      "type": "event"
    },
    {
      "inputs": [
        {
          "internalType": "address",
          "name": "to",
          "type": "address"
        },
        {
          "internalType": "uint256",
          "name": "tokenId",
          "type": "uint256"
        }
      ],
      "name": "approve",
      "outputs": [],
      "stateMutability": "nonpayable",
      "type": "function"
    },
    {
      "inputs": [
        {
          "internalType": "address",
          "name": "owner",
          "type": "address"
        }
      ],
      "name": "balanceOf",
      "outputs": [
        {
          "internalType": "uint256",
          "name": "",
          "type": "uint256"
        }
      ],
      "stateMutability": "view",
      "type": "function"
    },
    {
      "inputs": [
        {
          "internalType": "string",
          "name": "",
          "type": "string"
        }
      ],
      "name": "domains",
      "outputs": [
        {
          "internalType": "address",
          "name": "",
          "type": "address"
        }
      ],
      "stateMutability": "view",
      "type": "function"
    },
    {
      "inputs": [
        {
          "internalType": "string",
          "name": "name",
          "type": "string"
        }
      ],
      "name": "getAddress",
      "outputs": [
        {
          "internalType": "address",
          "name": "",
          "type": "address"
        }
      ],
      "stateMutability": "view",
      "type": "function"
    },
    {
      "inputs": [],
      "name": "getAllNames",
      "outputs": [
        {
          "internalType": "string[]",
          "name": "",
          "type": "string[]"
        }
      ],
      "stateMutability": "view",
      "type": "function"
    },
    {
      "inputs": [
        {
          "internalType": "uint256",
          "name": "tokenId",
          "type": "uint256"
        }
      ],
      "name": "getApproved",
      "outputs": [
        {
          "internalType": "address",
          "name": "",
          "type": "address"
        }
      ],
      "stateMutability": "view",
      "type": "function"
    },
    {
      "inputs": [
        {
          "internalType": "string",
          "name": "name",
          "type": "string"
        }
      ],
      "name": "getRecord",
      "outputs": [
        {
          "internalType": "string",
          "name": "",
          "type": "string"
        }
      ],
      "stateMutability": "view",
      "type": "function"
    },
    {
      "inputs": [
        {
          "internalType": "address",
          "name": "owner",
          "type": "address"
        },
        {
          "internalType": "address",
          "name": "operator",
          "type": "address"
        }
      ],
      "name": "isApprovedForAll",
      "outputs": [
        {
          "internalType": "bool",
          "name": "",
          "type": "bool"
        }
      ],
      "stateMutability": "view",
      "type": "function"
    },
    {
      "inputs": [],
      "name": "name",
      "outputs": [
        {
          "internalType": "string",
          "name": "",
          "type": "string"
        }
      ],
      "stateMutability": "view",
      "type": "function"
    },
    {
      "inputs": [
        {
          "internalType": "uint256",
          "name": "",
          "type": "uint256"
        }
      ],
      "name": "names",
      "outputs": [
        {
          "internalType": "string",
          "name": "",
          "type": "string"
        }
      ],
      "stateMutability": "view",
      "type": "function"
    },
    {
      "inputs": [],
      "name": "owner",
      "outputs": [
        {
          "internalType": "address payable",
          "name": "",
          "type": "address"
        }
      ],
      "stateMutability": "view",
      "type": "function"
    },
    {
      "inputs": [
        {
          "internalType": "uint256",
          "name": "tokenId",
          "type": "uint256"
        }
      ],
      "name": "ownerOf",
      "outputs": [
        {
          "internalType": "address",
          "name": "",
          "type": "address"
        }
      ],
      "stateMutability": "view",
      "type": "function"
    },
    {
      "inputs": [
        {
          "internalType": "string",
          "name": "name",
          "type": "string"
        }
      ],
      "name": "price",
      "outputs": [
        {
          "internalType": "uint256",
          "name": "",
          "type": "uint256"
        }
      ],
      "stateMutability": "pure",
      "type": "function"
    },
    {
      "inputs": [
        {
          "internalType": "string",
          "name": "",
          "type": "string"
        }
      ],
      "name": "records",
      "outputs": [
        {
          "internalType": "string",
          "name": "",
          "type": "string"
        }
      ],
      "stateMutability": "view",
      "type": "function"
    },
    {
      "inputs": [
        {
          "internalType": "string",
          "name": "name",
          "type": "string"
        }
      ],
      "name": "register",
      "outputs": [],
      "stateMutability": "payable",
      "type": "function"
    },
    {
      "inputs": [
        {
          "internalType": "address",
          "name": "from",
          "type": "address"
        },
        {
          "internalType": "address",
          "name": "to",
          "type": "address"
        },
        {
          "internalType": "uint256",
          "name": "tokenId",
          "type": "uint256"
        }
      ],
      "name": "safeTransferFrom",
      "outputs": [],
      "stateMutability": "nonpayable",
      "type": "function"
    },
    {
      "inputs": [
        {
          "internalType": "address",
          "name": "from",
          "type": "address"
        },
        {
          "internalType": "address",
          "name": "to",
          "type": "address"
        },
        {
          "internalType": "uint256",
          "name": "tokenId",
          "type": "uint256"
        },
        {
          "internalType": "bytes",
          "name": "data",
          "type": "bytes"
        }
      ],
      "name": "safeTransferFrom",
      "outputs": [],
      "stateMutability": "nonpayable",
      "type": "function"
    },
    {
      "inputs": [
        {
          "internalType": "address",
          "name": "operator",
          "type": "address"
        },
        {
          "internalType": "bool",
          "name": "approved",
          "type": "bool"
        }
      ],
      "name": "setApprovalForAll",
      "outputs": [],
      "stateMutability": "nonpayable",
      "type": "function"
    },
    {
      "inputs": [
        {
          "internalType": "string",
          "name": "name",
          "type": "string"
        },
        {
          "internalType": "string",
          "name": "record",
          "type": "string"
        }
      ],
      "name": "setRecord",
      "outputs": [],
      "stateMutability": "nonpayable",
      "type": "function"
    },
    {
      "inputs": [
        {
          "internalType": "bytes4",
          "name": "interfaceId",
          "type": "bytes4"
        }
      ],
      "name": "supportsInterface",
      "outputs": [
        {
          "internalType": "bool",
          "name": "",
          "type": "bool"
        }
      ],
      "stateMutability": "view",
      "type": "function"
    },
    {
      "inputs": [],
      "name": "symbol",
      "outputs": [
        {
          "internalType": "string",
          "name": "",
          "type": "string"
        }
      ],
      "stateMutability": "view",
      "type": "function"
    },
    {
      "inputs": [],
      "name": "tld",
      "outputs": [
        {
          "internalType": "string",
          "name": "",
          "type": "string"
        }
      ],
      "stateMutability": "view",
      "type": "function"
    },
    {
      "inputs": [
        {
          "internalType": "uint256",
          "name": "tokenId",
          "type": "uint256"
        }
      ],
      "name": "tokenURI",
      "outputs": [
        {
          "internalType": "string",
          "name": "",
          "type": "string"
        }
      ],
      "stateMutability": "view",
      "type": "function"
    },
    {
      "inputs": [
        {
          "internalType": "address",
          "name": "from",
          "type": "address"
        },
        {
          "internalType": "address",
          "name": "to",
          "type": "address"
        },
        {
          "internalType": "uint256",
          "name": "tokenId",
          "type": "uint256"
        }
      ],
      "name": "transferFrom",
      "outputs": [],
      "stateMutability": "nonpayable",
      "type": "function"
    },
    {
      "inputs": [
        {
          "internalType": "string",
          "name": "name",
          "type": "string"
        }
      ],
      "name": "valid",
      "outputs": [
        {
          "internalType": "bool",
          "name": "",
          "type": "bool"
        }
      ],
      "stateMutability": "pure",
      "type": "function"
    },
    {
      "inputs": [],
      "name": "withdraw",
      "outputs": [],
      "stateMutability": "nonpayable",
      "type": "function"
    }
  ],
  "bytecode": "0x60806040526040516200494b3803806200494b8339818101604052810190620000299190620003ff565b6040518060400160405280601581526020017f446563656e7472616c697a656420446f6d61696e7300000000000000000000008152506040518060400160405280600381526020017f444f4d00000000000000000000000000000000000000000000000000000000008152508160009081620000a691906200069b565b508060019081620000b891906200069b565b50505033600760006101000a81548173ffffffffffffffffffffffffffffffffffffffff021916908373ffffffffffffffffffffffffffffffffffffffff16021790555080600c90816200010d91906200069b565b50620001556040518060400160405280601a81526020017f257320646f6d61696e2073657276696365206465706c6f796564000000000000815250826200015c60201b60201c565b506200083e565b620001fe828260405160240162000175929190620007d4565b6040516020818303038152906040527f4b5c4277000000000000000000000000000000000000000000000000000000007bffffffffffffffffffffffffffffffffffffffffffffffffffffffff19166020820180517bffffffffffffffffffffffffffffffffffffffffffffffffffffffff83818316178352505050506200020260201b60201c565b5050565b6200022881620002236200022b60201b62001769176200024c60201b60201c565b60201c565b50565b60006a636f6e736f6c652e6c6f679050600080835160208501845afa505050565b6200026060201b62002ac117819050919050565b6200026a6200080f565b565b6000604051905090565b600080fd5b600080fd5b600080fd5b600080fd5b6000601f19601f8301169050919050565b7f4e487b7100000000000000000000000000000000000000000000000000000000600052604160045260246000fd5b620002d5826200028a565b810181811067ffffffffffffffff82111715620002f757620002f66200029b565b5b80604052505050565b60006200030c6200026c565b90506200031a8282620002ca565b919050565b600067ffffffffffffffff8211156200033d576200033c6200029b565b5b62000348826200028a565b9050602081019050919050565b60005b838110156200037557808201518184015260208101905062000358565b60008484015250505050565b60006200039862000392846200031f565b62000300565b905082815260208101848484011115620003b757620003b662000285565b5b620003c484828562000355565b509392505050565b600082601f830112620003e457620003e362000280565b5b8151620003f684826020860162000381565b91505092915050565b60006020828403121562000418576200041762000276565b5b600082015167ffffffffffffffff8111156200043957620004386200027b565b5b6200044784828501620003cc565b91505092915050565b600081519050919050565b7f4e487b7100000000000000000000000000000000000000000000000000000000600052602260045260246000fd5b60006002820490506001821680620004a357607f821691505b602082108103620004b957620004b86200045b565b5b50919050565b60008190508160005260206000209050919050565b60006020601f8301049050919050565b600082821b905092915050565b600060088302620005237fffffffffffffffffffffffffffffffffffffffffffffffffffffffffffffffff82620004e4565b6200052f8683620004e4565b95508019841693508086168417925050509392505050565b6000819050919050565b6000819050919050565b60006200057c62000576620005708462000547565b62000551565b62000547565b9050919050565b6000819050919050565b62000598836200055b565b620005b0620005a78262000583565b848454620004f1565b825550505050565b600090565b620005c7620005b8565b620005d48184846200058d565b505050565b5b81811015620005fc57620005f0600082620005bd565b600181019050620005da565b5050565b601f8211156200064b576200061581620004bf565b6200062084620004d4565b8101602085101562000630578190505b620006486200063f85620004d4565b830182620005d9565b50505b505050565b600082821c905092915050565b6000620006706000198460080262000650565b1980831691505092915050565b60006200068b83836200065d565b9150826002028217905092915050565b620006a68262000450565b67ffffffffffffffff811115620006c257620006c16200029b565b5b620006ce82546200048a565b620006db82828562000600565b600060209050601f831160018114620007135760008415620006fe578287015190505b6200070a85826200067d565b8655506200077a565b601f1984166200072386620004bf565b60005b828110156200074d5784890151825560018201915060208501945060208101905062000726565b868310156200076d578489015162000769601f8916826200065d565b8355505b6001600288020188555050505b505050505050565b600082825260208201905092915050565b6000620007a08262000450565b620007ac818562000782565b9350620007be81856020860162000355565b620007c9816200028a565b840191505092915050565b60006040820190508181036000830152620007f0818562000793565b9050818103602083015262000806818462000793565b90509392505050565b7f4e487b7100000000000000000000000000000000000000000000000000000000600052605160045260246000fd5b6140fd806200084e6000396000f3fe6080604052600436106101815760003560e01c806370a08231116100d1578063bf40fac11161008a578063e985e9c511610064578063e985e9c5146105de578063f2c298be1461061b578063fb825e5f14610637578063fe2c61981461066257610181565b8063bf40fac11461053b578063c1880a9814610578578063c87b56dd146105a157610181565b806370a08231146104195780638da5cb5b1461045657806395d89b41146104815780639791c097146104ac578063a22cb465146104e9578063b88d4fde1461051257610181565b8063264492351161013e57806342842e0e1161011857806342842e0e146103395780634622ab0314610362578063541e771d1461039f5780636352211e146103dc57610181565b806326449235146102ba5780632d551432146102f75780633ccfd60b1461032257610181565b806301ffc9a71461018657806306fdde03146101c3578063081812fc146101ee578063095ea7b31461022b57806311dd88451461025457806323b872dd14610291575b600080fd5b34801561019257600080fd5b506101ad60048036038101906101a89190612b37565b61069f565b6040516101ba9190612b7f565b60405180910390f35b3480156101cf57600080fd5b506101d8610700565b6040516101e59190612c2a565b60405180910390f35b3480156101fa57600080fd5b5061021560048036038101906102109190612c82565b610792565b6040516102229190612cf0565b60405180910390f35b34801561023757600080fd5b50610252600480360381019061024d9190612d37565b6107ae565b005b34801561026057600080fd5b5061027b60048036038101906102769190612ddc565b6107c4565b6040516102889190612c2a565b60405180910390f35b34801561029d57600080fd5b506102b860048036038101906102b39190612e29565b610877565b005b3480156102c657600080fd5b506102e160048036038101906102dc9190612fac565b610979565b6040516102ee9190612cf0565b60405180910390f35b34801561030357600080fd5b5061030c6109c2565b6040516103199190612c2a565b60405180910390f35b34801561032e57600080fd5b50610337610a50565b005b34801561034557600080fd5b50610360600480360381019061035b9190612e29565b610bb7565b005b34801561036e57600080fd5b5061038960048036038101906103849190612c82565b610bd7565b6040516103969190612c2a565b60405180910390f35b3480156103ab57600080fd5b506103c660048036038101906103c19190612fac565b610c77565b6040516103d39190612c2a565b60405180910390f35b3480156103e857600080fd5b5061040360048036038101906103fe9190612c82565b610d2d565b6040516104109190612cf0565b60405180910390f35b34801561042557600080fd5b50610440600480360381019061043b9190612ff5565b610d3f565b60405161044d9190613031565b60405180910390f35b34801561046257600080fd5b5061046b610df9565b604051610478919061306d565b60405180910390f35b34801561048d57600080fd5b50610496610e1f565b6040516104a39190612c2a565b60405180910390f35b3480156104b857600080fd5b506104d360048036038101906104ce9190612ddc565b610eb1565b6040516104e09190612b7f565b60405180910390f35b3480156104f557600080fd5b50610510600480360381019061050b91906130b4565b610f1e565b005b34801561051e57600080fd5b5061053960048036038101906105349190613195565b610f34565b005b34801561054757600080fd5b50610562600480360381019061055d9190612ddc565b610f59565b60405161056f9190612cf0565b60405180910390f35b34801561058457600080fd5b5061059f600480360381019061059a9190613218565b610fa4565b005b3480156105ad57600080fd5b506105c860048036038101906105c39190612c82565b61107f565b6040516105d59190612c2a565b60405180910390f35b3480156105ea57600080fd5b5061060560048036038101906106009190613299565b611192565b6040516106129190612b7f565b60405180910390f35b61063560048036038101906106309190612ddc565b611226565b005b34801561064357600080fd5b5061064c61159a565b60405161065991906133e5565b60405180910390f35b34801561066e57600080fd5b5061068960048036038101906106849190612ddc565b6116d6565b6040516106969190613031565b60405180910390f35b6000634906490660e01b7bffffffffffffffffffffffffffffffffffffffffffffffffffffffff1916827bffffffffffffffffffffffffffffffffffffffffffffffffffffffff191614806106f957506106f88261178a565b5b9050919050565b60606000805461070f90613436565b80601f016020809104026020016040519081016040528092919081815260200182805461073b90613436565b80156107885780601f1061075d57610100808354040283529160200191610788565b820191906000526020600020905b81548152906001019060200180831161076b57829003601f168201915b5050505050905090565b600061079d8261186c565b506107a7826118f4565b9050919050565b6107c082826107bb611931565b611939565b5050565b6060600a83836040516107d8929190613497565b908152602001604051809103902080546107f190613436565b80601f016020809104026020016040519081016040528092919081815260200182805461081d90613436565b801561086a5780601f1061083f5761010080835404028352916020019161086a565b820191906000526020600020905b81548152906001019060200180831161084d57829003601f168201915b5050505050905092915050565b600073ffffffffffffffffffffffffffffffffffffffff168273ffffffffffffffffffffffffffffffffffffffff16036108e95760006040517f64a0ae920000000000000000000000000000000000000000000000000000000081526004016108e09190612cf0565b60405180910390fd5b60006108fd83836108f8611931565b61194b565b90508373ffffffffffffffffffffffffffffffffffffffff168173ffffffffffffffffffffffffffffffffffffffff1614610973578382826040517f64283d7b00000000000000000000000000000000000000000000000000000000815260040161096a939291906134b0565b60405180910390fd5b50505050565b600b818051602081018201805184825260208301602085012081835280955050505050506000915054906101000a900473ffffffffffffffffffffffffffffffffffffffff1681565b600c80546109cf90613436565b80601f01602080910402602001604051908101604052809291908181526020018280546109fb90613436565b8015610a485780601f10610a1d57610100808354040283529160200191610a48565b820191906000526020600020905b815481529060010190602001808311610a2b57829003601f168201915b505050505081565b600760009054906101000a900473ffffffffffffffffffffffffffffffffffffffff1673ffffffffffffffffffffffffffffffffffffffff163373ffffffffffffffffffffffffffffffffffffffff1614610ae0576040517f08c379a0000000000000000000000000000000000000000000000000000000008152600401610ad790613533565b60405180910390fd5b60004790506000600760009054906101000a900473ffffffffffffffffffffffffffffffffffffffff1673ffffffffffffffffffffffffffffffffffffffff1682604051610b2d90613584565b60006040518083038185875af1925050503d8060008114610b6a576040519150601f19603f3d011682016040523d82523d6000602084013e610b6f565b606091505b5050905080610bb3576040517f08c379a0000000000000000000000000000000000000000000000000000000008152600401610baa906135e5565b60405180910390fd5b5050565b610bd283838360405180602001604052806000815250610f34565b505050565b60096020528060005260406000206000915090508054610bf690613436565b80601f0160208091040260200160405190810160405280929190818152602001828054610c2290613436565b8015610c6f5780601f10610c4457610100808354040283529160200191610c6f565b820191906000526020600020905b815481529060010190602001808311610c5257829003601f168201915b505050505081565b600a818051602081018201805184825260208301602085012081835280955050505050506000915090508054610cac90613436565b80601f0160208091040260200160405190810160405280929190818152602001828054610cd890613436565b8015610d255780601f10610cfa57610100808354040283529160200191610d25565b820191906000526020600020905b815481529060010190602001808311610d0857829003601f168201915b505050505081565b6000610d388261186c565b9050919050565b60008073ffffffffffffffffffffffffffffffffffffffff168273ffffffffffffffffffffffffffffffffffffffff1603610db25760006040517f89c62b64000000000000000000000000000000000000000000000000000000008152600401610da99190612cf0565b60405180910390fd5b600360008373ffffffffffffffffffffffffffffffffffffffff1673ffffffffffffffffffffffffffffffffffffffff168152602001908152602001600020549050919050565b600760009054906101000a900473ffffffffffffffffffffffffffffffffffffffff1681565b606060018054610e2e90613436565b80601f0160208091040260200160405190810160405280929190818152602001828054610e5a90613436565b8015610ea75780601f10610e7c57610100808354040283529160200191610ea7565b820191906000526020600020905b815481529060010190602001808311610e8a57829003601f168201915b5050505050905090565b600080610f0184848080601f016020809104026020016040519081016040528093929190818152602001838380828437600081840152601f19601f82011690508083019250505050505050611b65565b905060038110158015610f155750600a8111155b91505092915050565b610f30610f29611931565b8383611d1a565b5050565b610f3f848484610877565b610f53610f4a611931565b85858585611e89565b50505050565b6000600b8383604051610f6d929190613497565b908152602001604051809103902060009054906101000a900473ffffffffffffffffffffffffffffffffffffffff16905092915050565b600b8484604051610fb6929190613497565b908152602001604051809103902060009054906101000a900473ffffffffffffffffffffffffffffffffffffffff1673ffffffffffffffffffffffffffffffffffffffff163373ffffffffffffffffffffffffffffffffffffffff1614611049576040517f82b4290000000000000000000000000000000000000000000000000000000000815260040160405180910390fd5b8181600a868660405161105d929190613497565b908152602001604051809103902091826110789291906137bc565b5050505050565b606061108a8261186c565b5060006006600084815260200190815260200160002080546110ab90613436565b80601f01602080910402602001604051908101604052809291908181526020018280546110d790613436565b80156111245780601f106110f957610100808354040283529160200191611124565b820191906000526020600020905b81548152906001019060200180831161110757829003601f168201915b50505050509050600061113561203a565b9050600081510361114a57819250505061118d565b60008251111561117f5780826040516020016111679291906138bd565b6040516020818303038152906040529250505061118d565b61118884612051565b925050505b919050565b6000600560008473ffffffffffffffffffffffffffffffffffffffff1673ffffffffffffffffffffffffffffffffffffffff16815260200190815260200160002060008373ffffffffffffffffffffffffffffffffffffffff1673ffffffffffffffffffffffffffffffffffffffff16815260200190815260200160002060009054906101000a900460ff16905092915050565b600073ffffffffffffffffffffffffffffffffffffffff16600b8383604051611250929190613497565b908152602001604051809103902060009054906101000a900473ffffffffffffffffffffffffffffffffffffffff1673ffffffffffffffffffffffffffffffffffffffff16146112d5576040517f08c379a00000000000000000000000000000000000000000000000000000000081526004016112cc9061392d565b60405180910390fd5b6112df8282610eb1565b61131e576040517f08c379a000000000000000000000000000000000000000000000000000000000815260040161131590613999565b60405180910390fd5b600061132a83836116d6565b90508034101561136f576040517f08c379a000000000000000000000000000000000000000000000000000000000815260040161136690613a05565b60405180910390fd5b60008383600c60405160200161138793929190613af4565b6040516020818303038152906040529050600060085490506001600860008282546113b29190613b54565b925050819055506113c333826120ba565b60006113ed836040516020016113d99190613c46565b6040516020818303038152906040526120d8565b90506000816040516020016114029190613cbf565b604051602081830303815290604052905061141d838261226f565b33600b8888604051611430929190613497565b908152602001604051809103902060006101000a81548173ffffffffffffffffffffffffffffffffffffffff021916908373ffffffffffffffffffffffffffffffffffffffff160217905550868660096000868152602001908152602001600020918261149e9291906137bc565b506115916040518060600160405280602681526020016140a26026913988888080601f016020809104026020016040519081016040528093929190818152602001838380828437600081840152601f19601f82011690508083019250505050505050600c805461150d90613436565b80601f016020809104026020016040519081016040528092919081815260200182805461153990613436565b80156115865780601f1061155b57610100808354040283529160200191611586565b820191906000526020600020905b81548152906001019060200180831161156957829003601f168201915b5050505050336122cb565b50505050505050565b60606000600854905060008167ffffffffffffffff8111156115bf576115be612e81565b5b6040519080825280602002602001820160405280156115f257816020015b60608152602001906001900390816115dd5790505b50905060005b828110156116cd5760096000828152602001908152602001600020805461161e90613436565b80601f016020809104026020016040519081016040528092919081815260200182805461164a90613436565b80156116975780601f1061166c57610100808354040283529160200191611697565b820191906000526020600020905b81548152906001019060200180831161167a57829003601f168201915b50505050508282815181106116af576116ae613ce1565b5b602002602001018190525080806116c590613d10565b9150506115f8565b50809250505090565b60008061172684848080601f016020809104026020016040519081016040528093929190818152602001838380828437600081840152601f19601f82011690508083019250505050505050611b65565b905060038103611740576601c6bf52634000915050611763565b6004810361175857660110d9316ec000915050611763565b655af3107a40009150505b92915050565b60006a636f6e736f6c652e6c6f679050600080835160208501845afa505050565b60007f80ac58cd000000000000000000000000000000000000000000000000000000007bffffffffffffffffffffffffffffffffffffffffffffffffffffffff1916827bffffffffffffffffffffffffffffffffffffffffffffffffffffffff1916148061185557507f5b5e139f000000000000000000000000000000000000000000000000000000007bffffffffffffffffffffffffffffffffffffffffffffffffffffffff1916827bffffffffffffffffffffffffffffffffffffffffffffffffffffffff1916145b8061186557506118648261236d565b5b9050919050565b600080611878836123d7565b9050600073ffffffffffffffffffffffffffffffffffffffff168173ffffffffffffffffffffffffffffffffffffffff16036118eb57826040517f7e2732890000000000000000000000000000000000000000000000000000000081526004016118e29190613031565b60405180910390fd5b80915050919050565b60006004600083815260200190815260200160002060009054906101000a900473ffffffffffffffffffffffffffffffffffffffff169050919050565b600033905090565b6119468383836001612414565b505050565b600080611957846123d7565b9050600073ffffffffffffffffffffffffffffffffffffffff168373ffffffffffffffffffffffffffffffffffffffff1614611999576119988184866125d9565b5b600073ffffffffffffffffffffffffffffffffffffffff168173ffffffffffffffffffffffffffffffffffffffff1614611a2a576119db600085600080612414565b6001600360008373ffffffffffffffffffffffffffffffffffffffff1673ffffffffffffffffffffffffffffffffffffffff168152602001908152602001600020600082825403925050819055505b600073ffffffffffffffffffffffffffffffffffffffff168573ffffffffffffffffffffffffffffffffffffffff1614611aad576001600360008773ffffffffffffffffffffffffffffffffffffffff1673ffffffffffffffffffffffffffffffffffffffff168152602001908152602001600020600082825401925050819055505b846002600086815260200190815260200160002060006101000a81548173ffffffffffffffffffffffffffffffffffffffff021916908373ffffffffffffffffffffffffffffffffffffffff160217905550838573ffffffffffffffffffffffffffffffffffffffff168273ffffffffffffffffffffffffffffffffffffffff167fddf252ad1be2c89b69c2b068fc378daa952ba7f163c4a11628f55a4df523b3ef60405160405180910390a4809150509392505050565b60008060008084519050600092505b80821015611d0f576000858381518110611b9157611b90613ce1565b5b602001015160f81c60f81b9050608060f81b817effffffffffffffffffffffffffffffffffffffffffffffffffffffffffffff19161015611be057600183611bd99190613b54565b9250611cfb565b60e060f81b817effffffffffffffffffffffffffffffffffffffffffffffffffffffffffffff19161015611c2257600283611c1b9190613b54565b9250611cfa565b60f060f81b817effffffffffffffffffffffffffffffffffffffffffffffffffffffffffffff19161015611c6457600383611c5d9190613b54565b9250611cf9565b60f8801b817effffffffffffffffffffffffffffffffffffffffffffffffffffffffffffff19161015611ca557600483611c9e9190613b54565b9250611cf8565b60fc60f81b817effffffffffffffffffffffffffffffffffffffffffffffffffffffffffffff19161015611ce757600583611ce09190613b54565b9250611cf7565b600683611cf49190613b54565b92505b5b5b5b5b508280611d0790613d10565b935050611b74565b829350505050919050565b600073ffffffffffffffffffffffffffffffffffffffff168273ffffffffffffffffffffffffffffffffffffffff1603611d8b57816040517f5b08ba18000000000000000000000000000000000000000000000000000000008152600401611d829190612cf0565b60405180910390fd5b80600560008573ffffffffffffffffffffffffffffffffffffffff1673ffffffffffffffffffffffffffffffffffffffff16815260200190815260200160002060008473ffffffffffffffffffffffffffffffffffffffff1673ffffffffffffffffffffffffffffffffffffffff16815260200190815260200160002060006101000a81548160ff0219169083151502179055508173ffffffffffffffffffffffffffffffffffffffff168373ffffffffffffffffffffffffffffffffffffffff167f17307eab39ab6107e8899845ad3d59bd9653f200f220920489ca2b5937696c3183604051611e7c9190612b7f565b60405180910390a3505050565b60008373ffffffffffffffffffffffffffffffffffffffff163b1115612033578273ffffffffffffffffffffffffffffffffffffffff1663150b7a02868685856040518563ffffffff1660e01b8152600401611ee89493929190613dad565b6020604051808303816000875af1925050508015611f2457506040513d601f19601f82011682018060405250810190611f219190613e0e565b60015b611fa8573d8060008114611f54576040519150601f19603f3d011682016040523d82523d6000602084013e611f59565b606091505b506000815103611fa057836040517f64a0ae92000000000000000000000000000000000000000000000000000000008152600401611f979190612cf0565b60405180910390fd5b805181602001fd5b63150b7a0260e01b7bffffffffffffffffffffffffffffffffffffffffffffffffffffffff1916817bffffffffffffffffffffffffffffffffffffffffffffffffffffffff19161461203157836040517f64a0ae920000000000000000000000000000000000000000000000000000000081526004016120289190612cf0565b60405180910390fd5b505b5050505050565b606060405180602001604052806000815250905090565b606061205c8261186c565b50600061206761203a565b9050600081511161208757604051806020016040528060008152506120b2565b806120918461269d565b6040516020016120a29291906138bd565b6040516020818303038152906040525b915050919050565b6120d482826040518060200160405280600081525061276b565b5050565b606060008251905060008103612100576040518060200160405280600081525091505061226a565b600060036002836121119190613b54565b61211b9190613e6a565b60046121279190613e9b565b905060006020826121389190613b54565b67ffffffffffffffff81111561215157612150612e81565b5b6040519080825280601f01601f1916602001820160405280156121835781602001600182028036833780820191505090505b5090506000604051806060016040528060408152602001614062604091399050600181016020830160005b868110156122275760038101905062ffffff818a015116603f8160121c168401518060081b905060ff603f83600c1c1686015116810190508060081b905060ff603f8360061c1686015116810190508060081b905060ff603f831686015116810190508060e01b905080845260048401935050506121ae565b50600386066001811461224157600281146122515761225c565b613d3d60f01b600283035261225c565b603d60f81b60018303525b508484525050819450505050505b919050565b8060066000848152602001908152602001600020908161228f9190613edd565b507ff8e1a15aba9398e019f0b49df1a4fde98ee17ae345cb5f6b5e2c27f5033e8ce7826040516122bf9190613031565b60405180910390a15050565b612367848484846040516024016122e59493929190613faf565b6040516020818303038152906040527f6d572f44000000000000000000000000000000000000000000000000000000007bffffffffffffffffffffffffffffffffffffffffffffffffffffffff19166020820180517bffffffffffffffffffffffffffffffffffffffffffffffffffffffff838183161783525050505061278f565b50505050565b60007f01ffc9a7000000000000000000000000000000000000000000000000000000007bffffffffffffffffffffffffffffffffffffffffffffffffffffffff1916827bffffffffffffffffffffffffffffffffffffffffffffffffffffffff1916149050919050565b60006002600083815260200190815260200160002060009054906101000a900473ffffffffffffffffffffffffffffffffffffffff169050919050565b808061244d5750600073ffffffffffffffffffffffffffffffffffffffff168273ffffffffffffffffffffffffffffffffffffffff1614155b1561258157600061245d8461186c565b9050600073ffffffffffffffffffffffffffffffffffffffff168373ffffffffffffffffffffffffffffffffffffffff16141580156124c857508273ffffffffffffffffffffffffffffffffffffffff168173ffffffffffffffffffffffffffffffffffffffff1614155b80156124db57506124d98184611192565b155b1561251d57826040517fa9fbf51f0000000000000000000000000000000000000000000000000000000081526004016125149190612cf0565b60405180910390fd5b811561257f57838573ffffffffffffffffffffffffffffffffffffffff168273ffffffffffffffffffffffffffffffffffffffff167f8c5be1e5ebec7d5bd14f71427d1e84f3dd0314c0f7b2291e5b200ac8c7c3b92560405160405180910390a45b505b836004600085815260200190815260200160002060006101000a81548173ffffffffffffffffffffffffffffffffffffffff021916908373ffffffffffffffffffffffffffffffffffffffff16021790555050505050565b6125e48383836127a9565b61269857600073ffffffffffffffffffffffffffffffffffffffff168373ffffffffffffffffffffffffffffffffffffffff160361265957806040517f7e2732890000000000000000000000000000000000000000000000000000000081526004016126509190613031565b60405180910390fd5b81816040517f177e802f00000000000000000000000000000000000000000000000000000000815260040161268f929190614009565b60405180910390fd5b505050565b6060600060016126ac8461286a565b01905060008167ffffffffffffffff8111156126cb576126ca612e81565b5b6040519080825280601f01601f1916602001820160405280156126fd5781602001600182028036833780820191505090505b509050600082602001820190505b600115612760578080600190039150507f3031323334353637383961626364656600000000000000000000000000000000600a86061a8153600a858161275457612753613e3b565b5b0494506000850361270b575b819350505050919050565b61277583836129bd565b61278a612780611931565b6000858585611e89565b505050565b6127a68161279e611769612ab6565b63ffffffff16565b50565b60008073ffffffffffffffffffffffffffffffffffffffff168373ffffffffffffffffffffffffffffffffffffffff161415801561286157508273ffffffffffffffffffffffffffffffffffffffff168473ffffffffffffffffffffffffffffffffffffffff16148061282257506128218484611192565b5b8061286057508273ffffffffffffffffffffffffffffffffffffffff16612848836118f4565b73ffffffffffffffffffffffffffffffffffffffff16145b5b90509392505050565b600080600090507a184f03e93ff9f4daa797ed6e38ed64bf6a1f01000000000000000083106128c8577a184f03e93ff9f4daa797ed6e38ed64bf6a1f01000000000000000083816128be576128bd613e3b565b5b0492506040810190505b6d04ee2d6d415b85acef81000000008310612905576d04ee2d6d415b85acef810000000083816128fb576128fa613e3b565b5b0492506020810190505b662386f26fc10000831061293457662386f26fc10000838161292a57612929613e3b565b5b0492506010810190505b6305f5e100831061295d576305f5e100838161295357612952613e3b565b5b0492506008810190505b612710831061298257612710838161297857612977613e3b565b5b0492506004810190505b606483106129a5576064838161299b5761299a613e3b565b5b0492506002810190505b600a83106129b4576001810190505b80915050919050565b600073ffffffffffffffffffffffffffffffffffffffff168273ffffffffffffffffffffffffffffffffffffffff1603612a2f5760006040517f64a0ae92000000000000000000000000000000000000000000000000000000008152600401612a269190612cf0565b60405180910390fd5b6000612a3d8383600061194b565b9050600073ffffffffffffffffffffffffffffffffffffffff168173ffffffffffffffffffffffffffffffffffffffff1614612ab15760006040517f73c6ac6e000000000000000000000000000000000000000000000000000000008152600401612aa89190612cf0565b60405180910390fd5b505050565b612ac1819050919050565b612ac9614032565b565b6000604051905090565b600080fd5b600080fd5b60007fffffffff0000000000000000000000000000000000000000000000000000000082169050919050565b612b1481612adf565b8114612b1f57600080fd5b50565b600081359050612b3181612b0b565b92915050565b600060208284031215612b4d57612b4c612ad5565b5b6000612b5b84828501612b22565b91505092915050565b60008115159050919050565b612b7981612b64565b82525050565b6000602082019050612b946000830184612b70565b92915050565b600081519050919050565b600082825260208201905092915050565b60005b83811015612bd4578082015181840152602081019050612bb9565b60008484015250505050565b6000601f19601f8301169050919050565b6000612bfc82612b9a565b612c068185612ba5565b9350612c16818560208601612bb6565b612c1f81612be0565b840191505092915050565b60006020820190508181036000830152612c448184612bf1565b905092915050565b6000819050919050565b612c5f81612c4c565b8114612c6a57600080fd5b50565b600081359050612c7c81612c56565b92915050565b600060208284031215612c9857612c97612ad5565b5b6000612ca684828501612c6d565b91505092915050565b600073ffffffffffffffffffffffffffffffffffffffff82169050919050565b6000612cda82612caf565b9050919050565b612cea81612ccf565b82525050565b6000602082019050612d056000830184612ce1565b92915050565b612d1481612ccf565b8114612d1f57600080fd5b50565b600081359050612d3181612d0b565b92915050565b60008060408385031215612d4e57612d4d612ad5565b5b6000612d5c85828601612d22565b9250506020612d6d85828601612c6d565b9150509250929050565b600080fd5b600080fd5b600080fd5b60008083601f840112612d9c57612d9b612d77565b5b8235905067ffffffffffffffff811115612db957612db8612d7c565b5b602083019150836001820283011115612dd557612dd4612d81565b5b9250929050565b60008060208385031215612df357612df2612ad5565b5b600083013567ffffffffffffffff811115612e1157612e10612ada565b5b612e1d85828601612d86565b92509250509250929050565b600080600060608486031215612e4257612e41612ad5565b5b6000612e5086828701612d22565b9350506020612e6186828701612d22565b9250506040612e7286828701612c6d565b9150509250925092565b600080fd5b7f4e487b7100000000000000000000000000000000000000000000000000000000600052604160045260246000fd5b612eb982612be0565b810181811067ffffffffffffffff82111715612ed857612ed7612e81565b5b80604052505050565b6000612eeb612acb565b9050612ef78282612eb0565b919050565b600067ffffffffffffffff821115612f1757612f16612e81565b5b612f2082612be0565b9050602081019050919050565b82818337600083830152505050565b6000612f4f612f4a84612efc565b612ee1565b905082815260208101848484011115612f6b57612f6a612e7c565b5b612f76848285612f2d565b509392505050565b600082601f830112612f9357612f92612d77565b5b8135612fa3848260208601612f3c565b91505092915050565b600060208284031215612fc257612fc1612ad5565b5b600082013567ffffffffffffffff811115612fe057612fdf612ada565b5b612fec84828501612f7e565b91505092915050565b60006020828403121561300b5761300a612ad5565b5b600061301984828501612d22565b91505092915050565b61302b81612c4c565b82525050565b60006020820190506130466000830184613022565b92915050565b600061305782612caf565b9050919050565b6130678161304c565b82525050565b6000602082019050613082600083018461305e565b92915050565b61309181612b64565b811461309c57600080fd5b50565b6000813590506130ae81613088565b92915050565b600080604083850312156130cb576130ca612ad5565b5b60006130d985828601612d22565b92505060206130ea8582860161309f565b9150509250929050565b600067ffffffffffffffff82111561310f5761310e612e81565b5b61311882612be0565b9050602081019050919050565b6000613138613133846130f4565b612ee1565b90508281526020810184848401111561315457613153612e7c565b5b61315f848285612f2d565b509392505050565b600082601f83011261317c5761317b612d77565b5b813561318c848260208601613125565b91505092915050565b600080600080608085870312156131af576131ae612ad5565b5b60006131bd87828801612d22565b94505060206131ce87828801612d22565b93505060406131df87828801612c6d565b925050606085013567ffffffffffffffff811115613200576131ff612ada565b5b61320c87828801613167565b91505092959194509250565b6000806000806040858703121561323257613231612ad5565b5b600085013567ffffffffffffffff8111156132505761324f612ada565b5b61325c87828801612d86565b9450945050602085013567ffffffffffffffff81111561327f5761327e612ada565b5b61328b87828801612d86565b925092505092959194509250565b600080604083850312156132b0576132af612ad5565b5b60006132be85828601612d22565b92505060206132cf85828601612d22565b9150509250929050565b600081519050919050565b600082825260208201905092915050565b6000819050602082019050919050565b600082825260208201905092915050565b600061332182612b9a565b61332b8185613305565b935061333b818560208601612bb6565b61334481612be0565b840191505092915050565b600061335b8383613316565b905092915050565b6000602082019050919050565b600061337b826132d9565b61338581856132e4565b935083602082028501613397856132f5565b8060005b858110156133d357848403895281516133b4858261334f565b94506133bf83613363565b925060208a0199505060018101905061339b565b50829750879550505050505092915050565b600060208201905081810360008301526133ff8184613370565b905092915050565b7f4e487b7100000000000000000000000000000000000000000000000000000000600052602260045260246000fd5b6000600282049050600182168061344e57607f821691505b60208210810361346157613460613407565b5b50919050565b600081905092915050565b600061347e8385613467565b935061348b838584612f2d565b82840190509392505050565b60006134a4828486613472565b91508190509392505050565b60006060820190506134c56000830186612ce1565b6134d26020830185613022565b6134df6040830184612ce1565b949350505050565b7f4e6f742074686520636f6e7472616374206f776e657200000000000000000000600082015250565b600061351d601683612ba5565b9150613528826134e7565b602082019050919050565b6000602082019050818103600083015261354c81613510565b9050919050565b600081905092915050565b50565b600061356e600083613553565b91506135798261355e565b600082019050919050565b600061358f82613561565b9150819050919050565b7f5769746864726177616c206661696c6564000000000000000000000000000000600082015250565b60006135cf601183612ba5565b91506135da82613599565b602082019050919050565b600060208201905081810360008301526135fe816135c2565b9050919050565b600082905092915050565b60008190508160005260206000209050919050565b60006020601f8301049050919050565b600082821b905092915050565b6000600883026136727fffffffffffffffffffffffffffffffffffffffffffffffffffffffffffffffff82613635565b61367c8683613635565b95508019841693508086168417925050509392505050565b6000819050919050565b60006136b96136b46136af84612c4c565b613694565b612c4c565b9050919050565b6000819050919050565b6136d38361369e565b6136e76136df826136c0565b848454613642565b825550505050565b600090565b6136fc6136ef565b6137078184846136ca565b505050565b5b8181101561372b576137206000826136f4565b60018101905061370d565b5050565b601f8211156137705761374181613610565b61374a84613625565b81016020851015613759578190505b61376d61376585613625565b83018261370c565b50505b505050565b600082821c905092915050565b600061379360001984600802613775565b1980831691505092915050565b60006137ac8383613782565b9150826002028217905092915050565b6137c68383613605565b67ffffffffffffffff8111156137df576137de612e81565b5b6137e98254613436565b6137f482828561372f565b6000601f8311600181146138235760008415613811578287013590505b61381b85826137a0565b865550613883565b601f19841661383186613610565b60005b8281101561385957848901358255600182019150602085019450602081019050613834565b868310156138765784890135613872601f891682613782565b8355505b6001600288020188555050505b50505050505050565b600061389782612b9a565b6138a18185613467565b93506138b1818560208601612bb6565b80840191505092915050565b60006138c9828561388c565b91506138d5828461388c565b91508190509392505050565b7f446f6d61696e20697320616c7265616479207265676973746572656400000000600082015250565b6000613917601c83612ba5565b9150613922826138e1565b602082019050919050565b600060208201905081810360008301526139468161390a565b9050919050565b7f496e76616c696420646f6d61696e206e616d6500000000000000000000000000600082015250565b6000613983601383612ba5565b915061398e8261394d565b602082019050919050565b600060208201905081810360008301526139b281613976565b9050919050565b7f4e6f7420656e6f756768204d415449432073656e740000000000000000000000600082015250565b60006139ef601583612ba5565b91506139fa826139b9565b602082019050919050565b60006020820190508181036000830152613a1e816139e2565b9050919050565b7f2e00000000000000000000000000000000000000000000000000000000000000600082015250565b6000613a5b600183613467565b9150613a6682613a25565b600182019050919050565b60008154613a7e81613436565b613a888186613467565b94506001821660008114613aa35760018114613ab857613aeb565b60ff1983168652811515820286019350613aeb565b613ac185613610565b60005b83811015613ae357815481890152600182019150602081019050613ac4565b838801955050505b50505092915050565b6000613b01828587613472565b9150613b0c82613a4e565b9150613b188284613a71565b9150819050949350505050565b7f4e487b7100000000000000000000000000000000000000000000000000000000600052601160045260246000fd5b6000613b5f82612c4c565b9150613b6a83612c4c565b9250828201905080821115613b8257613b81613b25565b5b92915050565b7f7b226e616d65223a202200000000000000000000000000000000000000000000600082015250565b6000613bbe600a83613467565b9150613bc982613b88565b600a82019050919050565b7f222c20226465736372697074696f6e223a20224120646563656e7472616c697a60008201527f656420646f6d61696e222c2022696d616765223a2022227d0000000000000000602082015250565b6000613c30603883613467565b9150613c3b82613bd4565b603882019050919050565b6000613c5182613bb1565b9150613c5d828461388c565b9150613c6882613c23565b915081905092915050565b7f646174613a6170706c69636174696f6e2f6a736f6e3b6261736536342c000000600082015250565b6000613ca9601d83613467565b9150613cb482613c73565b601d82019050919050565b6000613cca82613c9c565b9150613cd6828461388c565b915081905092915050565b7f4e487b7100000000000000000000000000000000000000000000000000000000600052603260045260246000fd5b6000613d1b82612c4c565b91507fffffffffffffffffffffffffffffffffffffffffffffffffffffffffffffffff8203613d4d57613d4c613b25565b5b600182019050919050565b600081519050919050565b600082825260208201905092915050565b6000613d7f82613d58565b613d898185613d63565b9350613d99818560208601612bb6565b613da281612be0565b840191505092915050565b6000608082019050613dc26000830187612ce1565b613dcf6020830186612ce1565b613ddc6040830185613022565b8181036060830152613dee8184613d74565b905095945050505050565b600081519050613e0881612b0b565b92915050565b600060208284031215613e2457613e23612ad5565b5b6000613e3284828501613df9565b91505092915050565b7f4e487b7100000000000000000000000000000000000000000000000000000000600052601260045260246000fd5b6000613e7582612c4c565b9150613e8083612c4c565b925082613e9057613e8f613e3b565b5b828204905092915050565b6000613ea682612c4c565b9150613eb183612c4c565b9250828202613ebf81612c4c565b91508282048414831517613ed657613ed5613b25565b5b5092915050565b613ee682612b9a565b67ffffffffffffffff811115613eff57613efe612e81565b5b613f098254613436565b613f1482828561372f565b600060209050601f831160018114613f475760008415613f35578287015190505b613f3f85826137a0565b865550613fa7565b601f198416613f5586613610565b60005b82811015613f7d57848901518255600182019150602085019450602081019050613f58565b86831015613f9a5784890151613f96601f891682613782565b8355505b6001600288020188555050505b505050505050565b60006080820190508181036000830152613fc98187612bf1565b90508181036020830152613fdd8186612bf1565b90508181036040830152613ff18185612bf1565b90506140006060830184612ce1565b95945050505050565b600060408201905061401e6000830185612ce1565b61402b6020830184613022565b9392505050565b7f4e487b7100000000000000000000000000000000000000000000000000000000600052605160045260246000fdfe4142434445464748494a4b4c4d4e4f505152535455565758595a6162636465666768696a6b6c6d6e6f707172737475767778797a303132333435363738392b2f446f6d61696e2025732e257320686173206265656e2072656769737465726564206279202573a264697066735822122095e331529453dbffda4288157929c19df502218096a85535f687f81e7e7dc81364736f6c63430008140033",
  "linkReferences": {},
  "deployedLinkReferences": {}
}